{
  "_format": "hh-sol-artifact-1",
  "contractName": "PriceConsumerV3",
  "sourceName": "contracts/Witlab.sol",
  "abi": [
    {
      "inputs": [
        {
          "internalType": "address",
          "name": "_tokenAddress",
          "type": "address"
        }
      ],
      "name": "getLatestPrice",
      "outputs": [
        {
          "internalType": "int256",
          "name": "",
          "type": "int256"
        }
      ],
      "stateMutability": "view",
      "type": "function"
    }
  ],
  "bytecode": "0x608060405234801561001057600080fd5b50610300806100206000396000f3fe608060405234801561001057600080fd5b506004361061002b5760003560e01c806316345f1814610030575b600080fd5b61004a6004803603810190610045919061014a565b610060565b6040516100579190610190565b60405180910390f35b60008082905060008173ffffffffffffffffffffffffffffffffffffffff1663feaf968c6040518163ffffffff1660e01b815260040160a060405180830381865afa1580156100b3573d6000803e3d6000fd5b505050506040513d601f19601f820116820180604052508101906100d7919061024f565b5050509150508092505050919050565b600080fd5b600073ffffffffffffffffffffffffffffffffffffffff82169050919050565b6000610117826100ec565b9050919050565b6101278161010c565b811461013257600080fd5b50565b6000813590506101448161011e565b92915050565b6000602082840312156101605761015f6100e7565b5b600061016e84828501610135565b91505092915050565b6000819050919050565b61018a81610177565b82525050565b60006020820190506101a56000830184610181565b92915050565b600069ffffffffffffffffffff82169050919050565b6101ca816101ab565b81146101d557600080fd5b50565b6000815190506101e7816101c1565b92915050565b6101f681610177565b811461020157600080fd5b50565b600081519050610213816101ed565b92915050565b6000819050919050565b61022c81610219565b811461023757600080fd5b50565b60008151905061024981610223565b92915050565b600080600080600060a0868803121561026b5761026a6100e7565b5b6000610279888289016101d8565b955050602061028a88828901610204565b945050604061029b8882890161023a565b93505060606102ac8882890161023a565b92505060806102bd888289016101d8565b915050929550929590935056fea2646970667358221220870e6ab54291233f905cb6e73f66c66aa130be6ec0c45ff169ec50fefe902b8b64736f6c63430008110033",
  "linkReferences": {},
  "deployedLinkReferences": {}
}