{
  "_format": "hh-sol-artifact-1",
  "contractName": "Witlab",
  "sourceName": "contracts/Witlab.sol",
  "abi": [
    {
      "inputs": [],
      "stateMutability": "nonpayable",
      "type": "constructor"
    },
    {
      "anonymous": false,
      "inputs": [
        {
          "indexed": true,
          "internalType": "address",
          "name": "owner",
          "type": "address"
        },
        {
          "indexed": true,
          "internalType": "address",
          "name": "approved",
          "type": "address"
        },
        {
          "indexed": true,
          "internalType": "uint256",
          "name": "tokenId",
          "type": "uint256"
        }
      ],
      "name": "Approval",
      "type": "event"
    },
    {
      "anonymous": false,
      "inputs": [
        {
          "indexed": true,
          "internalType": "address",
          "name": "owner",
          "type": "address"
        },
        {
          "indexed": true,
          "internalType": "address",
          "name": "operator",
          "type": "address"
        },
        {
          "indexed": false,
          "internalType": "bool",
          "name": "approved",
          "type": "bool"
        }
      ],
      "name": "ApprovalForAll",
      "type": "event"
    },
    {
      "anonymous": false,
      "inputs": [
        {
          "indexed": true,
          "internalType": "address",
          "name": "previousOwner",
          "type": "address"
        },
        {
          "indexed": true,
          "internalType": "address",
          "name": "newOwner",
          "type": "address"
        }
      ],
      "name": "OwnershipTransferred",
      "type": "event"
    },
    {
      "anonymous": false,
      "inputs": [
        {
          "indexed": true,
          "internalType": "address",
          "name": "from",
          "type": "address"
        },
        {
          "indexed": true,
          "internalType": "address",
          "name": "to",
          "type": "address"
        },
        {
          "indexed": true,
          "internalType": "uint256",
          "name": "tokenId",
          "type": "uint256"
        }
      ],
      "name": "Transfer",
      "type": "event"
    },
    {
      "inputs": [],
      "name": "_tokenIdCounter",
      "outputs": [
        {
          "internalType": "uint256",
          "name": "_value",
          "type": "uint256"
        }
      ],
      "stateMutability": "view",
      "type": "function"
    },
    {
      "inputs": [
        {
          "internalType": "address",
          "name": "to",
          "type": "address"
        },
        {
          "internalType": "uint256",
          "name": "tokenId",
          "type": "uint256"
        }
      ],
      "name": "approve",
      "outputs": [],
      "stateMutability": "nonpayable",
      "type": "function"
    },
    {
      "inputs": [
        {
          "internalType": "address",
          "name": "owner",
          "type": "address"
        }
      ],
      "name": "balanceOf",
      "outputs": [
        {
          "internalType": "uint256",
          "name": "",
          "type": "uint256"
        }
      ],
      "stateMutability": "view",
      "type": "function"
    },
    {
      "inputs": [
        {
          "internalType": "uint256",
          "name": "tokenId",
          "type": "uint256"
        }
      ],
      "name": "getApproved",
      "outputs": [
        {
          "internalType": "address",
          "name": "",
          "type": "address"
        }
      ],
      "stateMutability": "view",
      "type": "function"
    },
    {
      "inputs": [
        {
          "internalType": "address",
          "name": "_tokenAddress",
          "type": "address"
        }
      ],
      "name": "getLatestPrice",
      "outputs": [
        {
          "internalType": "int256",
          "name": "",
          "type": "int256"
        }
      ],
      "stateMutability": "view",
      "type": "function"
    },
    {
      "inputs": [],
      "name": "getTokenID",
      "outputs": [
        {
          "internalType": "uint256",
          "name": "",
          "type": "uint256"
        }
      ],
      "stateMutability": "view",
      "type": "function"
    },
    {
      "inputs": [
        {
          "internalType": "address",
          "name": "_tokenAddress",
          "type": "address"
        }
      ],
      "name": "getTokenPriceInETH",
      "outputs": [
        {
          "internalType": "int256",
          "name": "",
          "type": "int256"
        }
      ],
      "stateMutability": "view",
      "type": "function"
    },
    {
      "inputs": [
        {
          "internalType": "address",
          "name": "_tokenAddress",
          "type": "address"
        }
      ],
      "name": "getTokenPriceInUSD",
      "outputs": [
        {
          "internalType": "int256",
          "name": "",
          "type": "int256"
        }
      ],
      "stateMutability": "view",
      "type": "function"
    },
    {
      "inputs": [
        {
          "internalType": "address",
          "name": "",
          "type": "address"
        }
      ],
      "name": "hasMinted",
      "outputs": [
        {
          "internalType": "bool",
          "name": "",
          "type": "bool"
        }
      ],
      "stateMutability": "view",
      "type": "function"
    },
    {
      "inputs": [
        {
          "internalType": "address",
          "name": "owner",
          "type": "address"
        },
        {
          "internalType": "address",
          "name": "operator",
          "type": "address"
        }
      ],
      "name": "isApprovedForAll",
      "outputs": [
        {
          "internalType": "bool",
          "name": "",
          "type": "bool"
        }
      ],
      "stateMutability": "view",
      "type": "function"
    },
    {
      "inputs": [],
      "name": "mintUsingEth",
      "outputs": [],
      "stateMutability": "payable",
      "type": "function"
    },
    {
      "inputs": [],
      "name": "name",
      "outputs": [
        {
          "internalType": "string",
          "name": "",
          "type": "string"
        }
      ],
      "stateMutability": "view",
      "type": "function"
    },
    {
      "inputs": [],
      "name": "owner",
      "outputs": [
        {
          "internalType": "address",
          "name": "",
          "type": "address"
        }
      ],
      "stateMutability": "view",
      "type": "function"
    },
    {
      "inputs": [
        {
          "internalType": "uint256",
          "name": "tokenId",
          "type": "uint256"
        }
      ],
      "name": "ownerOf",
      "outputs": [
        {
          "internalType": "address",
          "name": "",
          "type": "address"
        }
      ],
      "stateMutability": "view",
      "type": "function"
    },
    {
      "inputs": [],
      "name": "renounceOwnership",
      "outputs": [],
      "stateMutability": "nonpayable",
      "type": "function"
    },
    {
      "inputs": [
        {
          "internalType": "address",
          "name": "from",
          "type": "address"
        },
        {
          "internalType": "address",
          "name": "to",
          "type": "address"
        },
        {
          "internalType": "uint256",
          "name": "tokenId",
          "type": "uint256"
        }
      ],
      "name": "safeTransferFrom",
      "outputs": [],
      "stateMutability": "nonpayable",
      "type": "function"
    },
    {
      "inputs": [
        {
          "internalType": "address",
          "name": "from",
          "type": "address"
        },
        {
          "internalType": "address",
          "name": "to",
          "type": "address"
        },
        {
          "internalType": "uint256",
          "name": "tokenId",
          "type": "uint256"
        },
        {
          "internalType": "bytes",
          "name": "data",
          "type": "bytes"
        }
      ],
      "name": "safeTransferFrom",
      "outputs": [],
      "stateMutability": "nonpayable",
      "type": "function"
    },
    {
      "inputs": [
        {
          "internalType": "address",
          "name": "operator",
          "type": "address"
        },
        {
          "internalType": "bool",
          "name": "approved",
          "type": "bool"
        }
      ],
      "name": "setApprovalForAll",
      "outputs": [],
      "stateMutability": "nonpayable",
      "type": "function"
    },
    {
      "inputs": [
        {
          "internalType": "bytes4",
          "name": "interfaceId",
          "type": "bytes4"
        }
      ],
      "name": "supportsInterface",
      "outputs": [
        {
          "internalType": "bool",
          "name": "",
          "type": "bool"
        }
      ],
      "stateMutability": "view",
      "type": "function"
    },
    {
      "inputs": [],
      "name": "symbol",
      "outputs": [
        {
          "internalType": "string",
          "name": "",
          "type": "string"
        }
      ],
      "stateMutability": "view",
      "type": "function"
    },
    {
      "inputs": [
        {
          "internalType": "uint256",
          "name": "tokenId",
          "type": "uint256"
        }
      ],
      "name": "tokenURI",
      "outputs": [
        {
          "internalType": "string",
          "name": "",
          "type": "string"
        }
      ],
      "stateMutability": "view",
      "type": "function"
    },
    {
      "inputs": [
        {
          "internalType": "address",
          "name": "from",
          "type": "address"
        },
        {
          "internalType": "address",
          "name": "to",
          "type": "address"
        },
        {
          "internalType": "uint256",
          "name": "tokenId",
          "type": "uint256"
        }
      ],
      "name": "transferFrom",
      "outputs": [],
      "stateMutability": "nonpayable",
      "type": "function"
    },
    {
      "inputs": [
        {
          "internalType": "address",
          "name": "newOwner",
          "type": "address"
        }
      ],
      "name": "transferOwnership",
      "outputs": [],
      "stateMutability": "nonpayable",
      "type": "function"
    },
    {
      "inputs": [
        {
          "internalType": "address",
          "name": "_to",
          "type": "address"
        },
        {
          "internalType": "uint256",
          "name": "_tokenID",
          "type": "uint256"
        }
      ],
      "name": "transferSBT",
      "outputs": [],
      "stateMutability": "nonpayable",
      "type": "function"
    },
    {
      "inputs": [
        {
          "internalType": "address",
          "name": "",
          "type": "address"
        }
      ],
      "name": "uriTokenIDMap",
      "outputs": [
        {
          "internalType": "uint256",
          "name": "",
          "type": "uint256"
        }
      ],
      "stateMutability": "view",
      "type": "function"
    }
  ],
  "bytecode": "0x608060405266038d7ea4c68000600b553480156200001c57600080fd5b506040518060400160405280600681526020017f5769746c616200000000000000000000000000000000000000000000000000008152506040518060400160405280600381526020017f574954000000000000000000000000000000000000000000000000000000000081525081600090816200009a91906200041d565b508060019081620000ac91906200041d565b505050620000cf620000c3620000d560201b60201c565b620000dd60201b60201c565b62000504565b600033905090565b6000600760009054906101000a900473ffffffffffffffffffffffffffffffffffffffff16905081600760006101000a81548173ffffffffffffffffffffffffffffffffffffffff021916908373ffffffffffffffffffffffffffffffffffffffff1602179055508173ffffffffffffffffffffffffffffffffffffffff168173ffffffffffffffffffffffffffffffffffffffff167f8be0079c531659141344cd1fd0a4f28419497f9722a3daafe3b4186f6b6457e060405160405180910390a35050565b600081519050919050565b7f4e487b7100000000000000000000000000000000000000000000000000000000600052604160045260246000fd5b7f4e487b7100000000000000000000000000000000000000000000000000000000600052602260045260246000fd5b600060028204905060018216806200022557607f821691505b6020821081036200023b576200023a620001dd565b5b50919050565b60008190508160005260206000209050919050565b60006020601f8301049050919050565b600082821b905092915050565b600060088302620002a57fffffffffffffffffffffffffffffffffffffffffffffffffffffffffffffffff8262000266565b620002b1868362000266565b95508019841693508086168417925050509392505050565b6000819050919050565b6000819050919050565b6000620002fe620002f8620002f284620002c9565b620002d3565b620002c9565b9050919050565b6000819050919050565b6200031a83620002dd565b62000332620003298262000305565b84845462000273565b825550505050565b600090565b620003496200033a565b620003568184846200030f565b505050565b5b818110156200037e57620003726000826200033f565b6001810190506200035c565b5050565b601f821115620003cd57620003978162000241565b620003a28462000256565b81016020851015620003b2578190505b620003ca620003c18562000256565b8301826200035b565b50505b505050565b600082821c905092915050565b6000620003f260001984600802620003d2565b1980831691505092915050565b60006200040d8383620003df565b9150826002028217905092915050565b6200042882620001a3565b67ffffffffffffffff811115620004445762000443620001ae565b5b6200045082546200020c565b6200045d82828562000382565b600060209050601f83116001811462000495576000841562000480578287015190505b6200048c8582620003ff565b865550620004fc565b601f198416620004a58662000241565b60005b82811015620004cf57848901518255600182019150602085019450602081019050620004a8565b86831015620004ef5784890151620004eb601f891682620003df565b8355505b6001600288020188555050505b505050505050565b613af980620005146000396000f3fe6080604052600436106101665760003560e01c806370a08231116100d1578063a22cb4651161008a578063e985e9c511610064578063e985e9c514610555578063f2fde38b14610592578063f4cafa07146105bb578063fd473282146105f857610166565b8063a22cb465146104c6578063b88d4fde146104ef578063c87b56dd1461051857610166565b806370a08231146103e7578063715018a61461042457806384c4bd4b1461043b5780638da5cb5b1461046657806395d89b411461049157806399156f1a146104bc57610166565b806322ebc4ec1161012357806322ebc4ec146102b357806323b872dd146102f057806338e21cce1461031957806342842e0e146103565780636352211e1461037f5780636ba367a3146103bc57610166565b806301ffc9a71461016b57806306fdde03146101a8578063081812fc146101d3578063095ea7b31461021057806316345f1814610239578063175d6a2b14610276575b600080fd5b34801561017757600080fd5b50610192600480360381019061018d91906122a6565b610621565b60405161019f91906122ee565b60405180910390f35b3480156101b457600080fd5b506101bd610703565b6040516101ca9190612399565b60405180910390f35b3480156101df57600080fd5b506101fa60048036038101906101f591906123f1565b610795565b604051610207919061245f565b60405180910390f35b34801561021c57600080fd5b50610237600480360381019061023291906124a6565b6107db565b005b34801561024557600080fd5b50610260600480360381019061025b91906124e6565b6108f2565b60405161026d919061252c565b60405180910390f35b34801561028257600080fd5b5061029d600480360381019061029891906124e6565b610979565b6040516102aa9190612556565b60405180910390f35b3480156102bf57600080fd5b506102da60048036038101906102d591906124e6565b610991565b6040516102e7919061252c565b60405180910390f35b3480156102fc57600080fd5b5061031760048036038101906103129190612571565b6109a3565b005b34801561032557600080fd5b50610340600480360381019061033b91906124e6565b610a03565b60405161034d91906122ee565b60405180910390f35b34801561036257600080fd5b5061037d60048036038101906103789190612571565b610a23565b005b34801561038b57600080fd5b506103a660048036038101906103a191906123f1565b610a43565b6040516103b3919061245f565b60405180910390f35b3480156103c857600080fd5b506103d1610af4565b6040516103de9190612556565b60405180910390f35b3480156103f357600080fd5b5061040e600480360381019061040991906124e6565b610b05565b60405161041b9190612556565b60405180910390f35b34801561043057600080fd5b50610439610bbc565b005b34801561044757600080fd5b50610450610bd0565b60405161045d9190612556565b60405180910390f35b34801561047257600080fd5b5061047b610bdc565b604051610488919061245f565b60405180910390f35b34801561049d57600080fd5b506104a6610c06565b6040516104b39190612399565b60405180910390f35b6104c4610c98565b005b3480156104d257600080fd5b506104ed60048036038101906104e891906125f0565b610d79565b005b3480156104fb57600080fd5b5061051660048036038101906105119190612765565b610d8f565b005b34801561052457600080fd5b5061053f600480360381019061053a91906123f1565b610df1565b60405161054c9190612399565b60405180910390f35b34801561056157600080fd5b5061057c600480360381019061057791906127e8565b610e03565b60405161058991906122ee565b60405180910390f35b34801561059e57600080fd5b506105b960048036038101906105b491906124e6565b610e97565b005b3480156105c757600080fd5b506105e260048036038101906105dd91906124e6565b610f1a565b6040516105ef919061252c565b60405180910390f35b34801561060457600080fd5b5061061f600480360381019061061a91906124a6565b610f53565b005b60007f80ac58cd000000000000000000000000000000000000000000000000000000007bffffffffffffffffffffffffffffffffffffffffffffffffffffffff1916827bffffffffffffffffffffffffffffffffffffffffffffffffffffffff191614806106ec57507f5b5e139f000000000000000000000000000000000000000000000000000000007bffffffffffffffffffffffffffffffffffffffffffffffffffffffff1916827bffffffffffffffffffffffffffffffffffffffffffffffffffffffff1916145b806106fc57506106fb82610f62565b5b9050919050565b60606000805461071290612857565b80601f016020809104026020016040519081016040528092919081815260200182805461073e90612857565b801561078b5780601f106107605761010080835404028352916020019161078b565b820191906000526020600020905b81548152906001019060200180831161076e57829003601f168201915b5050505050905090565b60006107a082610fcc565b6004600083815260200190815260200160002060009054906101000a900473ffffffffffffffffffffffffffffffffffffffff169050919050565b60006107e682610a43565b90508073ffffffffffffffffffffffffffffffffffffffff168373ffffffffffffffffffffffffffffffffffffffff1603610856576040517f08c379a000000000000000000000000000000000000000000000000000000000815260040161084d906128fa565b60405180910390fd5b8073ffffffffffffffffffffffffffffffffffffffff16610875611017565b73ffffffffffffffffffffffffffffffffffffffff1614806108a457506108a38161089e611017565b610e03565b5b6108e3576040517f08c379a00000000000000000000000000000000000000000000000000000000081526004016108da9061298c565b60405180910390fd5b6108ed838361101f565b505050565b60008082905060008173ffffffffffffffffffffffffffffffffffffffff1663feaf968c6040518163ffffffff1660e01b815260040160a060405180830381865afa158015610945573d6000803e3d6000fd5b505050506040513d601f19601f820116820180604052508101906109699190612a2f565b5050509150508092505050919050565b600a6020528060005260406000206000915090505481565b600061099c826108f2565b9050919050565b6109b46109ae611017565b826110d8565b6109f3576040517f08c379a00000000000000000000000000000000000000000000000000000000081526004016109ea90612b1c565b60405180910390fd5b6109fe83838361116d565b505050565b60096020528060005260406000206000915054906101000a900460ff1681565b610a3e83838360405180602001604052806000815250610d8f565b505050565b6000806002600084815260200190815260200160002060009054906101000a900473ffffffffffffffffffffffffffffffffffffffff169050600073ffffffffffffffffffffffffffffffffffffffff168173ffffffffffffffffffffffffffffffffffffffff1603610aeb576040517f08c379a0000000000000000000000000000000000000000000000000000000008152600401610ae290612b88565b60405180910390fd5b80915050919050565b6000610b0060086113d3565b905090565b60008073ffffffffffffffffffffffffffffffffffffffff168273ffffffffffffffffffffffffffffffffffffffff1603610b75576040517f08c379a0000000000000000000000000000000000000000000000000000000008152600401610b6c90612c1a565b60405180910390fd5b600360008373ffffffffffffffffffffffffffffffffffffffff1673ffffffffffffffffffffffffffffffffffffffff168152602001908152602001600020549050919050565b610bc46113e1565b610bce600061145f565b565b60088060000154905081565b6000600760009054906101000a900473ffffffffffffffffffffffffffffffffffffffff16905090565b606060018054610c1590612857565b80601f0160208091040260200160405190810160405280929190818152602001828054610c4190612857565b8015610c8e5780601f10610c6357610100808354040283529160200191610c8e565b820191906000526020600020905b815481529060010190602001808311610c7157829003601f168201915b5050505050905090565b600b543414610cdc576040517f08c379a0000000000000000000000000000000000000000000000000000000008152600401610cd390612cac565b60405180910390fd5b60001515600960003373ffffffffffffffffffffffffffffffffffffffff1673ffffffffffffffffffffffffffffffffffffffff16815260200190815260200160002060009054906101000a900460ff16151514610d6f576040517f08c379a0000000000000000000000000000000000000000000000000000000008152600401610d6690612d3e565b60405180910390fd5b610d77611525565b565b610d8b610d84611017565b8383611604565b5050565b610da0610d9a611017565b836110d8565b610ddf576040517f08c379a0000000000000000000000000000000000000000000000000000000008152600401610dd690612b1c565b60405180910390fd5b610deb84848484611770565b50505050565b6060610dfc826117cc565b9050919050565b6000600560008473ffffffffffffffffffffffffffffffffffffffff1673ffffffffffffffffffffffffffffffffffffffff16815260200190815260200160002060008373ffffffffffffffffffffffffffffffffffffffff1673ffffffffffffffffffffffffffffffffffffffff16815260200190815260200160002060009054906101000a900460ff16905092915050565b610e9f6113e1565b600073ffffffffffffffffffffffffffffffffffffffff168173ffffffffffffffffffffffffffffffffffffffff1603610f0e576040517f08c379a0000000000000000000000000000000000000000000000000000000008152600401610f0590612dd0565b60405180910390fd5b610f178161145f565b50565b6000610f3973d4a33860578de61dbabdc8bfdb98fd742fa7028e610991565b610f4283610991565b610f4c9190612e4e565b9050919050565b610f5e33838361116d565b5050565b60007f01ffc9a7000000000000000000000000000000000000000000000000000000007bffffffffffffffffffffffffffffffffffffffffffffffffffffffff1916827bffffffffffffffffffffffffffffffffffffffffffffffffffffffff1916149050919050565b610fd5816118de565b611014576040517f08c379a000000000000000000000000000000000000000000000000000000000815260040161100b90612b88565b60405180910390fd5b50565b600033905090565b816004600083815260200190815260200160002060006101000a81548173ffffffffffffffffffffffffffffffffffffffff021916908373ffffffffffffffffffffffffffffffffffffffff160217905550808273ffffffffffffffffffffffffffffffffffffffff1661109283610a43565b73ffffffffffffffffffffffffffffffffffffffff167f8c5be1e5ebec7d5bd14f71427d1e84f3dd0314c0f7b2291e5b200ac8c7c3b92560405160405180910390a45050565b6000806110e483610a43565b90508073ffffffffffffffffffffffffffffffffffffffff168473ffffffffffffffffffffffffffffffffffffffff16148061112657506111258185610e03565b5b8061116457508373ffffffffffffffffffffffffffffffffffffffff1661114c84610795565b73ffffffffffffffffffffffffffffffffffffffff16145b91505092915050565b8273ffffffffffffffffffffffffffffffffffffffff1661118d82610a43565b73ffffffffffffffffffffffffffffffffffffffff16146111e3576040517f08c379a00000000000000000000000000000000000000000000000000000000081526004016111da90612f2a565b60405180910390fd5b600073ffffffffffffffffffffffffffffffffffffffff168273ffffffffffffffffffffffffffffffffffffffff1603611252576040517f08c379a000000000000000000000000000000000000000000000000000000000815260040161124990612fbc565b60405180910390fd5b61125d83838361194a565b61126860008261101f565b6001600360008573ffffffffffffffffffffffffffffffffffffffff1673ffffffffffffffffffffffffffffffffffffffff16815260200190815260200160002060008282546112b89190612fdc565b925050819055506001600360008473ffffffffffffffffffffffffffffffffffffffff1673ffffffffffffffffffffffffffffffffffffffff168152602001908152602001600020600082825461130f9190613010565b92505081905550816002600083815260200190815260200160002060006101000a81548173ffffffffffffffffffffffffffffffffffffffff021916908373ffffffffffffffffffffffffffffffffffffffff160217905550808273ffffffffffffffffffffffffffffffffffffffff168473ffffffffffffffffffffffffffffffffffffffff167fddf252ad1be2c89b69c2b068fc378daa952ba7f163c4a11628f55a4df523b3ef60405160405180910390a46113ce8383836119c9565b505050565b600081600001549050919050565b6113e9611017565b73ffffffffffffffffffffffffffffffffffffffff16611407610bdc565b73ffffffffffffffffffffffffffffffffffffffff161461145d576040517f08c379a000000000000000000000000000000000000000000000000000000000815260040161145490613090565b60405180910390fd5b565b6000600760009054906101000a900473ffffffffffffffffffffffffffffffffffffffff16905081600760006101000a81548173ffffffffffffffffffffffffffffffffffffffff021916908373ffffffffffffffffffffffffffffffffffffffff1602179055508173ffffffffffffffffffffffffffffffffffffffff168173ffffffffffffffffffffffffffffffffffffffff167f8be0079c531659141344cd1fd0a4f28419497f9722a3daafe3b4186f6b6457e060405160405180910390a35050565b6000339050600061153660086113d3565b905061154260086119ce565b61154c82826119e4565b600061155783611a02565b90506115638282611bc5565b81600a60008573ffffffffffffffffffffffffffffffffffffffff1673ffffffffffffffffffffffffffffffffffffffff168152602001908152602001600020819055506001600960008573ffffffffffffffffffffffffffffffffffffffff1673ffffffffffffffffffffffffffffffffffffffff16815260200190815260200160002060006101000a81548160ff021916908315150217905550505050565b8173ffffffffffffffffffffffffffffffffffffffff168373ffffffffffffffffffffffffffffffffffffffff1603611672576040517f08c379a0000000000000000000000000000000000000000000000000000000008152600401611669906130fc565b60405180910390fd5b80600560008573ffffffffffffffffffffffffffffffffffffffff1673ffffffffffffffffffffffffffffffffffffffff16815260200190815260200160002060008473ffffffffffffffffffffffffffffffffffffffff1673ffffffffffffffffffffffffffffffffffffffff16815260200190815260200160002060006101000a81548160ff0219169083151502179055508173ffffffffffffffffffffffffffffffffffffffff168373ffffffffffffffffffffffffffffffffffffffff167f17307eab39ab6107e8899845ad3d59bd9653f200f220920489ca2b5937696c318360405161176391906122ee565b60405180910390a3505050565b61177b84848461116d565b61178784848484611c32565b6117c6576040517f08c379a00000000000000000000000000000000000000000000000000000000081526004016117bd9061318e565b60405180910390fd5b50505050565b60606117d782610fcc565b60006006600084815260200190815260200160002080546117f790612857565b80601f016020809104026020016040519081016040528092919081815260200182805461182390612857565b80156118705780601f1061184557610100808354040283529160200191611870565b820191906000526020600020905b81548152906001019060200180831161185357829003601f168201915b505050505090506000611881611db9565b905060008151036118965781925050506118d9565b6000825111156118cb5780826040516020016118b39291906131ea565b604051602081830303815290604052925050506118d9565b6118d484611dd0565b925050505b919050565b60008073ffffffffffffffffffffffffffffffffffffffff166002600084815260200190815260200160002060009054906101000a900473ffffffffffffffffffffffffffffffffffffffff1673ffffffffffffffffffffffffffffffffffffffff1614159050919050565b600073ffffffffffffffffffffffffffffffffffffffff168373ffffffffffffffffffffffffffffffffffffffff16146119b9576040517f08c379a00000000000000000000000000000000000000000000000000000000081526004016119b09061325a565b60405180910390fd5b6119c4838383611e38565b505050565b505050565b6001816000016000828254019250508190555050565b6119fe828260405180602001604052806000815250611e3d565b5050565b60606000602867ffffffffffffffff811115611a2157611a2061263a565b5b6040519080825280601f01601f191660200182016040528015611a535781602001600182028036833780820191505090505b50905060005b6014811015611bbb576000816013611a719190612fdc565b6008611a7d919061327a565b6002611a8991906133ef565b8573ffffffffffffffffffffffffffffffffffffffff16611aaa919061343a565b60f81b9050600060108260f81c611ac19190613478565b60f81b905060008160f81c6010611ad891906134a9565b8360f81c611ae691906134e6565b60f81b9050611af482611e98565b85856002611b02919061327a565b81518110611b1357611b1261351b565b5b60200101907effffffffffffffffffffffffffffffffffffffffffffffffffffffffffffff1916908160001a905350611b4b81611e98565b856001866002611b5b919061327a565b611b659190613010565b81518110611b7657611b7561351b565b5b60200101907effffffffffffffffffffffffffffffffffffffffffffffffffffffffffffff1916908160001a9053505050508080611bb39061354a565b915050611a59565b5080915050919050565b611bce826118de565b611c0d576040517f08c379a0000000000000000000000000000000000000000000000000000000008152600401611c0490613604565b60405180910390fd5b80600660008481526020019081526020016000209081611c2d91906137d0565b505050565b6000611c538473ffffffffffffffffffffffffffffffffffffffff16611ede565b15611dac578373ffffffffffffffffffffffffffffffffffffffff1663150b7a02611c7c611017565b8786866040518563ffffffff1660e01b8152600401611c9e94939291906138f7565b6020604051808303816000875af1925050508015611cda57506040513d601f19601f82011682018060405250810190611cd79190613958565b60015b611d5c573d8060008114611d0a576040519150601f19603f3d011682016040523d82523d6000602084013e611d0f565b606091505b506000815103611d54576040517f08c379a0000000000000000000000000000000000000000000000000000000008152600401611d4b9061318e565b60405180910390fd5b805181602001fd5b63150b7a0260e01b7bffffffffffffffffffffffffffffffffffffffffffffffffffffffff1916817bffffffffffffffffffffffffffffffffffffffffffffffffffffffff191614915050611db1565b600190505b949350505050565b606060405180602001604052806000815250905090565b6060611ddb82610fcc565b6000611de5611db9565b90506000815111611e055760405180602001604052806000815250611e30565b80611e0f84611f01565b604051602001611e209291906131ea565b6040516020818303038152906040525b915050919050565b505050565b611e478383612061565b611e546000848484611c32565b611e93576040517f08c379a0000000000000000000000000000000000000000000000000000000008152600401611e8a9061318e565b60405180910390fd5b505050565b6000600a8260f81c60ff161015611ec35760308260f81c611eb99190613985565b60f81b9050611ed9565b60578260f81c611ed39190613985565b60f81b90505b919050565b6000808273ffffffffffffffffffffffffffffffffffffffff163b119050919050565b606060008203611f48576040518060400160405280600181526020017f3000000000000000000000000000000000000000000000000000000000000000815250905061205c565b600082905060005b60008214611f7a578080611f639061354a565b915050600a82611f73919061343a565b9150611f50565b60008167ffffffffffffffff811115611f9657611f9561263a565b5b6040519080825280601f01601f191660200182016040528015611fc85781602001600182028036833780820191505090505b5090505b6000851461205557600182611fe19190612fdc565b9150600a85611ff091906139ba565b6030611ffc9190613010565b60f81b8183815181106120125761201161351b565b5b60200101907effffffffffffffffffffffffffffffffffffffffffffffffffffffffffffff1916908160001a905350600a8561204e919061343a565b9450611fcc565b8093505050505b919050565b600073ffffffffffffffffffffffffffffffffffffffff168273ffffffffffffffffffffffffffffffffffffffff16036120d0576040517f08c379a00000000000000000000000000000000000000000000000000000000081526004016120c790613a37565b60405180910390fd5b6120d9816118de565b15612119576040517f08c379a000000000000000000000000000000000000000000000000000000000815260040161211090613aa3565b60405180910390fd5b6121256000838361194a565b6001600360008473ffffffffffffffffffffffffffffffffffffffff1673ffffffffffffffffffffffffffffffffffffffff16815260200190815260200160002060008282546121759190613010565b92505081905550816002600083815260200190815260200160002060006101000a81548173ffffffffffffffffffffffffffffffffffffffff021916908373ffffffffffffffffffffffffffffffffffffffff160217905550808273ffffffffffffffffffffffffffffffffffffffff16600073ffffffffffffffffffffffffffffffffffffffff167fddf252ad1be2c89b69c2b068fc378daa952ba7f163c4a11628f55a4df523b3ef60405160405180910390a4612236600083836119c9565b5050565b6000604051905090565b600080fd5b600080fd5b60007fffffffff0000000000000000000000000000000000000000000000000000000082169050919050565b6122838161224e565b811461228e57600080fd5b50565b6000813590506122a08161227a565b92915050565b6000602082840312156122bc576122bb612244565b5b60006122ca84828501612291565b91505092915050565b60008115159050919050565b6122e8816122d3565b82525050565b600060208201905061230360008301846122df565b92915050565b600081519050919050565b600082825260208201905092915050565b60005b83811015612343578082015181840152602081019050612328565b60008484015250505050565b6000601f19601f8301169050919050565b600061236b82612309565b6123758185612314565b9350612385818560208601612325565b61238e8161234f565b840191505092915050565b600060208201905081810360008301526123b38184612360565b905092915050565b6000819050919050565b6123ce816123bb565b81146123d957600080fd5b50565b6000813590506123eb816123c5565b92915050565b60006020828403121561240757612406612244565b5b6000612415848285016123dc565b91505092915050565b600073ffffffffffffffffffffffffffffffffffffffff82169050919050565b60006124498261241e565b9050919050565b6124598161243e565b82525050565b60006020820190506124746000830184612450565b92915050565b6124838161243e565b811461248e57600080fd5b50565b6000813590506124a08161247a565b92915050565b600080604083850312156124bd576124bc612244565b5b60006124cb85828601612491565b92505060206124dc858286016123dc565b9150509250929050565b6000602082840312156124fc576124fb612244565b5b600061250a84828501612491565b91505092915050565b6000819050919050565b61252681612513565b82525050565b6000602082019050612541600083018461251d565b92915050565b612550816123bb565b82525050565b600060208201905061256b6000830184612547565b92915050565b60008060006060848603121561258a57612589612244565b5b600061259886828701612491565b93505060206125a986828701612491565b92505060406125ba868287016123dc565b9150509250925092565b6125cd816122d3565b81146125d857600080fd5b50565b6000813590506125ea816125c4565b92915050565b6000806040838503121561260757612606612244565b5b600061261585828601612491565b9250506020612626858286016125db565b9150509250929050565b600080fd5b600080fd5b7f4e487b7100000000000000000000000000000000000000000000000000000000600052604160045260246000fd5b6126728261234f565b810181811067ffffffffffffffff821117156126915761269061263a565b5b80604052505050565b60006126a461223a565b90506126b08282612669565b919050565b600067ffffffffffffffff8211156126d0576126cf61263a565b5b6126d98261234f565b9050602081019050919050565b82818337600083830152505050565b6000612708612703846126b5565b61269a565b90508281526020810184848401111561272457612723612635565b5b61272f8482856126e6565b509392505050565b600082601f83011261274c5761274b612630565b5b813561275c8482602086016126f5565b91505092915050565b6000806000806080858703121561277f5761277e612244565b5b600061278d87828801612491565b945050602061279e87828801612491565b93505060406127af878288016123dc565b925050606085013567ffffffffffffffff8111156127d0576127cf612249565b5b6127dc87828801612737565b91505092959194509250565b600080604083850312156127ff576127fe612244565b5b600061280d85828601612491565b925050602061281e85828601612491565b9150509250929050565b7f4e487b7100000000000000000000000000000000000000000000000000000000600052602260045260246000fd5b6000600282049050600182168061286f57607f821691505b60208210810361288257612881612828565b5b50919050565b7f4552433732313a20617070726f76616c20746f2063757272656e74206f776e6560008201527f7200000000000000000000000000000000000000000000000000000000000000602082015250565b60006128e4602183612314565b91506128ef82612888565b604082019050919050565b60006020820190508181036000830152612913816128d7565b9050919050565b7f4552433732313a20617070726f76652063616c6c6572206973206e6f7420746f60008201527f6b656e206f776e6572206e6f7220617070726f76656420666f7220616c6c0000602082015250565b6000612976603e83612314565b91506129818261291a565b604082019050919050565b600060208201905081810360008301526129a581612969565b9050919050565b600069ffffffffffffffffffff82169050919050565b6129cb816129ac565b81146129d657600080fd5b50565b6000815190506129e8816129c2565b92915050565b6129f781612513565b8114612a0257600080fd5b50565b600081519050612a14816129ee565b92915050565b600081519050612a29816123c5565b92915050565b600080600080600060a08688031215612a4b57612a4a612244565b5b6000612a59888289016129d9565b9550506020612a6a88828901612a05565b9450506040612a7b88828901612a1a565b9350506060612a8c88828901612a1a565b9250506080612a9d888289016129d9565b9150509295509295909350565b7f4552433732313a2063616c6c6572206973206e6f7420746f6b656e206f776e6560008201527f72206e6f7220617070726f766564000000000000000000000000000000000000602082015250565b6000612b06602e83612314565b9150612b1182612aaa565b604082019050919050565b60006020820190508181036000830152612b3581612af9565b9050919050565b7f4552433732313a20696e76616c696420746f6b656e2049440000000000000000600082015250565b6000612b72601883612314565b9150612b7d82612b3c565b602082019050919050565b60006020820190508181036000830152612ba181612b65565b9050919050565b7f4552433732313a2061646472657373207a65726f206973206e6f74206120766160008201527f6c6964206f776e65720000000000000000000000000000000000000000000000602082015250565b6000612c04602983612314565b9150612c0f82612ba8565b604082019050919050565b60006020820190508181036000830152612c3381612bf7565b9050919050565b7f4d696e74696e67206665652069732065786163746c7920302e3030312065746860008201527f6572000000000000000000000000000000000000000000000000000000000000602082015250565b6000612c96602283612314565b9150612ca182612c3a565b604082019050919050565b60006020820190508181036000830152612cc581612c89565b9050919050565b7f4f6e6c79206f6e65206d696e74696e6720616c6c6f776564207065722061646460008201527f7265737300000000000000000000000000000000000000000000000000000000602082015250565b6000612d28602483612314565b9150612d3382612ccc565b604082019050919050565b60006020820190508181036000830152612d5781612d1b565b9050919050565b7f4f776e61626c653a206e6577206f776e657220697320746865207a65726f206160008201527f6464726573730000000000000000000000000000000000000000000000000000602082015250565b6000612dba602683612314565b9150612dc582612d5e565b604082019050919050565b60006020820190508181036000830152612de981612dad565b9050919050565b7f4e487b7100000000000000000000000000000000000000000000000000000000600052601260045260246000fd5b7f4e487b7100000000000000000000000000000000000000000000000000000000600052601160045260246000fd5b6000612e5982612513565b9150612e6483612513565b925082612e7457612e73612df0565b5b600160000383147f800000000000000000000000000000000000000000000000000000000000000083141615612ead57612eac612e1f565b5b828205905092915050565b7f4552433732313a207472616e736665722066726f6d20696e636f72726563742060008201527f6f776e6572000000000000000000000000000000000000000000000000000000602082015250565b6000612f14602583612314565b9150612f1f82612eb8565b604082019050919050565b60006020820190508181036000830152612f4381612f07565b9050919050565b7f4552433732313a207472616e7366657220746f20746865207a65726f2061646460008201527f7265737300000000000000000000000000000000000000000000000000000000602082015250565b6000612fa6602483612314565b9150612fb182612f4a565b604082019050919050565b60006020820190508181036000830152612fd581612f99565b9050919050565b6000612fe7826123bb565b9150612ff2836123bb565b925082820390508181111561300a57613009612e1f565b5b92915050565b600061301b826123bb565b9150613026836123bb565b925082820190508082111561303e5761303d612e1f565b5b92915050565b7f4f776e61626c653a2063616c6c6572206973206e6f7420746865206f776e6572600082015250565b600061307a602083612314565b915061308582613044565b602082019050919050565b600060208201905081810360008301526130a98161306d565b9050919050565b7f4552433732313a20617070726f766520746f2063616c6c657200000000000000600082015250565b60006130e6601983612314565b91506130f1826130b0565b602082019050919050565b60006020820190508181036000830152613115816130d9565b9050919050565b7f4552433732313a207472616e7366657220746f206e6f6e20455243373231526560008201527f63656976657220696d706c656d656e7465720000000000000000000000000000602082015250565b6000613178603283612314565b91506131838261311c565b604082019050919050565b600060208201905081810360008301526131a78161316b565b9050919050565b600081905092915050565b60006131c482612309565b6131ce81856131ae565b93506131de818560208601612325565b80840191505092915050565b60006131f682856131b9565b915061320282846131b9565b91508190509392505050565b7f4572723a20746f6b656e207472616e7366657220697320424c4f434b45440000600082015250565b6000613244601e83612314565b915061324f8261320e565b602082019050919050565b6000602082019050818103600083015261327381613237565b9050919050565b6000613285826123bb565b9150613290836123bb565b925082820261329e816123bb565b915082820484148315176132b5576132b4612e1f565b5b5092915050565b60008160011c9050919050565b6000808291508390505b6001851115613313578086048111156132ef576132ee612e1f565b5b60018516156132fe5780820291505b808102905061330c856132bc565b94506132d3565b94509492505050565b60008261332c57600190506133e8565b8161333a57600090506133e8565b8160018114613350576002811461335a57613389565b60019150506133e8565b60ff84111561336c5761336b612e1f565b5b8360020a91508482111561338357613382612e1f565b5b506133e8565b5060208310610133831016604e8410600b84101617156133be5782820a9050838111156133b9576133b8612e1f565b5b6133e8565b6133cb84848460016132c9565b925090508184048111156133e2576133e1612e1f565b5b81810290505b9392505050565b60006133fa826123bb565b9150613405836123bb565b92506134327fffffffffffffffffffffffffffffffffffffffffffffffffffffffffffffffff848461331c565b905092915050565b6000613445826123bb565b9150613450836123bb565b9250826134605761345f612df0565b5b828204905092915050565b600060ff82169050919050565b60006134838261346b565b915061348e8361346b565b92508261349e5761349d612df0565b5b828204905092915050565b60006134b48261346b565b91506134bf8361346b565b92508282026134cd8161346b565b91508082146134df576134de612e1f565b5b5092915050565b60006134f18261346b565b91506134fc8361346b565b9250828203905060ff81111561351557613514612e1f565b5b92915050565b7f4e487b7100000000000000000000000000000000000000000000000000000000600052603260045260246000fd5b6000613555826123bb565b91507fffffffffffffffffffffffffffffffffffffffffffffffffffffffffffffffff820361358757613586612e1f565b5b600182019050919050565b7f45524337323155524953746f726167653a2055524920736574206f66206e6f6e60008201527f6578697374656e7420746f6b656e000000000000000000000000000000000000602082015250565b60006135ee602e83612314565b91506135f982613592565b604082019050919050565b6000602082019050818103600083015261361d816135e1565b9050919050565b60008190508160005260206000209050919050565b60006020601f8301049050919050565b600082821b905092915050565b6000600883026136867fffffffffffffffffffffffffffffffffffffffffffffffffffffffffffffffff82613649565b6136908683613649565b95508019841693508086168417925050509392505050565b6000819050919050565b60006136cd6136c86136c3846123bb565b6136a8565b6123bb565b9050919050565b6000819050919050565b6136e7836136b2565b6136fb6136f3826136d4565b848454613656565b825550505050565b600090565b613710613703565b61371b8184846136de565b505050565b5b8181101561373f57613734600082613708565b600181019050613721565b5050565b601f8211156137845761375581613624565b61375e84613639565b8101602085101561376d578190505b61378161377985613639565b830182613720565b50505b505050565b600082821c905092915050565b60006137a760001984600802613789565b1980831691505092915050565b60006137c08383613796565b9150826002028217905092915050565b6137d982612309565b67ffffffffffffffff8111156137f2576137f161263a565b5b6137fc8254612857565b613807828285613743565b600060209050601f83116001811461383a5760008415613828578287015190505b61383285826137b4565b86555061389a565b601f19841661384886613624565b60005b828110156138705784890151825560018201915060208501945060208101905061384b565b8683101561388d5784890151613889601f891682613796565b8355505b6001600288020188555050505b505050505050565b600081519050919050565b600082825260208201905092915050565b60006138c9826138a2565b6138d381856138ad565b93506138e3818560208601612325565b6138ec8161234f565b840191505092915050565b600060808201905061390c6000830187612450565b6139196020830186612450565b6139266040830185612547565b818103606083015261393881846138be565b905095945050505050565b6000815190506139528161227a565b92915050565b60006020828403121561396e5761396d612244565b5b600061397c84828501613943565b91505092915050565b60006139908261346b565b915061399b8361346b565b9250828201905060ff8111156139b4576139b3612e1f565b5b92915050565b60006139c5826123bb565b91506139d0836123bb565b9250826139e0576139df612df0565b5b828206905092915050565b7f4552433732313a206d696e7420746f20746865207a65726f2061646472657373600082015250565b6000613a21602083612314565b9150613a2c826139eb565b602082019050919050565b60006020820190508181036000830152613a5081613a14565b9050919050565b7f4552433732313a20746f6b656e20616c7265616479206d696e74656400000000600082015250565b6000613a8d601c83612314565b9150613a9882613a57565b602082019050919050565b60006020820190508181036000830152613abc81613a80565b905091905056fea2646970667358221220729cd9cd2104fbfa55fcf2ace3a4a9ca1211c3757c8512f06965c045b42bc26d64736f6c63430008110033",
  "linkReferences": {},
  "deployedLinkReferences": {}
}